{
  "contractName": "Plant",
  "abi": [
    {
      "constant": true,
      "inputs": [],
      "name": "creator",
      "outputs": [
        {
          "name": "",
          "type": "address"
        }
      ],
      "payable": false,
      "stateMutability": "view",
      "type": "function"
    },
    {
      "constant": true,
      "inputs": [],
      "name": "number_of_plants",
      "outputs": [
        {
          "name": "",
          "type": "uint256"
        }
      ],
      "payable": false,
      "stateMutability": "view",
      "type": "function"
    },
    {
      "constant": true,
      "inputs": [],
      "name": "total_supply",
      "outputs": [
        {
          "name": "",
          "type": "uint256"
        }
      ],
      "payable": false,
      "stateMutability": "view",
      "type": "function"
    },
    {
      "constant": false,
      "inputs": [],
      "name": "getStatus",
      "outputs": [
        {
          "name": "leaves",
          "type": "uint256"
        },
        {
          "name": "outstandingTokens",
          "type": "uint256"
        },
        {
          "name": "balance",
          "type": "uint256"
        },
        {
          "name": "numberOfPlants",
          "type": "uint256"
        }
      ],
      "payable": false,
      "stateMutability": "nonpayable",
      "type": "function"
    },
    {
      "constant": true,
      "inputs": [],
      "name": "plant_price",
      "outputs": [
        {
          "name": "",
          "type": "uint256"
        }
      ],
      "payable": false,
      "stateMutability": "view",
      "type": "function"
    },
    {
      "constant": false,
      "inputs": [],
      "name": "receiveEther",
      "outputs": [
        {
          "name": "",
          "type": "uint256"
        }
      ],
      "payable": true,
      "stateMutability": "payable",
      "type": "function"
    },
    {
      "constant": true,
      "inputs": [
        {
          "name": "numPicked",
          "type": "uint256"
        }
      ],
      "name": "finney_balance",
      "outputs": [
        {
          "name": "",
          "type": "uint256"
        }
      ],
      "payable": false,
      "stateMutability": "view",
      "type": "function"
    },
    {
      "constant": true,
      "inputs": [
        {
          "name": "numPicked",
          "type": "uint256"
        }
      ],
      "name": "remaining_leaves",
      "outputs": [
        {
          "name": "",
          "type": "uint256"
        },
        {
          "name": "",
          "type": "uint256"
        }
      ],
      "payable": false,
      "stateMutability": "view",
      "type": "function"
    },
    {
      "constant": false,
      "inputs": [
        {
          "name": "numPicked",
          "type": "uint256"
        }
      ],
      "name": "leafPicked",
      "outputs": [
        {
          "name": "",
          "type": "uint256"
        },
        {
          "name": "",
          "type": "uint256"
        }
      ],
      "payable": true,
      "stateMutability": "payable",
      "type": "function"
    },
    {
      "inputs": [
        {
          "name": "_number_of_leaves",
          "type": "uint256"
        },
        {
          "name": "_initial_coins",
          "type": "uint256"
        }
      ],
      "payable": false,
      "stateMutability": "view",
      "type": "function",
      "constant": true,
      "name": "number_of_leaves",
      "outputs": [
        {
          "name": "",
          "type": "uint256"
        }
      ]
    },
    {
      "payable": false,
      "stateMutability": "view",
      "type": "function",
      "inputs": [
        {
          "name": "_number_of_leaves",
          "type": "uint256"
        },
        {
          "name": "_initial_coins",
          "type": "uint256"
        }
      ],
      "constant": true,
      "name": "initial_coins",
      "outputs": [
        {
          "name": "",
          "type": "uint256"
        }
      ]
    },
    {
      "anonymous": false,
      "inputs": [
        {
          "indexed": false,
          "name": "_number_of_leaves",
          "type": "uint256"
        },
        {
          "indexed": false,
          "name": "_initial_coins",
          "type": "uint256"
        }
      ],
      "name": "leafWasPicked",
      "type": "constructor",
      "payable": true,
      "stateMutability": "payable"
    },
    {
      "anonymous": false,
      "inputs": [
        {
          "indexed": false,
          "name": "leavesLeft",
          "type": "uint256"
        },
        {
          "indexed": false,
          "name": "numberTaken",
          "type": "uint256"
        },
        {
          "indexed": false,
          "name": "newPlantNumber",
          "type": "uint256"
        }
      ],
      "name": "leafWasPicked",
      "type": "fallback",
      "payable": true,
      "stateMutability": "payable"
    },
    {
      "anonymous": false,
      "inputs": [
        {
          "indexed": false,
          "name": "newBalance",
          "type": "uint256"
        },
        {
          "indexed": false,
          "name": "newTotalSupply",
          "type": "uint256"
        },
        {
          "indexed": false,
          "name": "newPlantNumber",
          "type": "uint256"
        }
      ],
      "name": "plantWasPurchased",
      "type": "event"
    },
    {
      "anonymous": false,
      "inputs": [
        {
          "indexed": false,
          "name": "amount",
          "type": "uint256"
        },
        {
          "indexed": false,
          "name": "newBalance",
          "type": "uint256"
        },
        {
          "indexed": false,
          "name": "newPlantNumber",
          "type": "uint256"
        }
      ],
      "name": "depositedFunds",
      "type": "event"
    },
    {
      "anonymous": false,
      "inputs": [
        {
          "indexed": false,
          "name": "harvester",
          "type": "address"
        },
        {
          "indexed": false,
          "name": "leafTaken",
          "type": "uint256"
        },
        {
          "indexed": false,
          "name": "_time",
          "type": "uint256"
        }
      ],
      "name": "pickedEvent",
      "type": "event"
    }
  ],
  "bytecode": "0x60606040526000600255603c6006556040516040806106738339810160405280805190602001909190805190602001909190505060003411151561004257600080fd5b816001819055506001546002819055508060038190555060035460048190555066038d7ea4c680003481151561007457fe5b04600581905550336000806101000a81548173ffffffffffffffffffffffffffffffffffffffff021916908373ffffffffffffffffffffffffffffffffffffffff16021790555060016007819055507fe91cbde410108f009b394cc8fa5c6285477b4ccf6c35958ad12e0bb7ec5359cf34600554604051808381526020018281526020019250505060405180910390a1505061055e806101156000396000f3006060604052600436106100af576000357c0100000000000000000000000000000000000000000000000000000000900463ffffffff16806302d05d3f1461011c57806304c9dffc146101715780633940e9ee1461019a5780634e69d560146101c357806354295d1214610201578063a3912ec81461022a578063ae7cb7d314610234578063b1691e391461025d578063d53d7a4614610286578063e5bd637c1461029e578063eb982196146102c7575b66038d7ea4c68000348115156100c157fe5b046005600082825401925050819055506100d96102f0565b7fe91cbde410108f009b394cc8fa5c6285477b4ccf6c35958ad12e0bb7ec5359cf34600554604051808381526020018281526020019250505060405180910390a1005b341561012757600080fd5b61012f61039e565b604051808273ffffffffffffffffffffffffffffffffffffffff1673ffffffffffffffffffffffffffffffffffffffff16815260200191505060405180910390f35b341561017c57600080fd5b6101846103c3565b6040518082815260200191505060405180910390f35b34156101a557600080fd5b6101ad6103c9565b6040518082815260200191505060405180910390f35b34156101ce57600080fd5b6101d66103cf565b6040518085815260200184815260200183815260200182815260200194505050505060405180910390f35b341561020c57600080fd5b6102146103ef565b6040518082815260200191505060405180910390f35b6102326103f5565b005b341561023f57600080fd5b61024761045a565b6040518082815260200191505060405180910390f35b341561026857600080fd5b610270610460565b6040518082815260200191505060405180910390f35b61029c6004808035906020019091905050610466565b005b34156102a957600080fd5b6102b1610526565b6040518082815260200191505060405180910390f35b34156102d257600080fd5b6102da61052c565b6040518082815260200191505060405180910390f35b600060065460055411151561030457600080fd5b60065460055481151561031357fe5b04905080600354026004600082825401925050819055508060065402600560008282540392505081905550806007600082825401925050819055507f67fdd32fc9b3d934accb1b4d08ed49e3a1eff4a148a0166226e04063a8da825260055460045460075460405180848152602001838152602001828152602001935050505060405180910390a150565b6000809054906101000a900473ffffffffffffffffffffffffffffffffffffffff1681565b60075481565b60045481565b600080600080600254600454600554600754935093509350935090919293565b60065481565b66038d7ea4c680003481151561040757fe5b046005600082825401925050819055507fe91cbde410108f009b394cc8fa5c6285477b4ccf6c35958ad12e0bb7ec5359cf34600554604051808381526020018281526020019250505060405180910390a1565b60055481565b60025481565b60006002548210151561047857600080fd5b66038d7ea4c680003481151561048a57fe5b046005600082825401925050819055506002549050816002600082825403925050819055507fca140077652bd24cbbd618f91462218799541db7ceb5f3b9e13f21a7fa915208338342604051808473ffffffffffffffffffffffffffffffffffffffff1673ffffffffffffffffffffffffffffffffffffffff168152602001838152602001828152602001935050505060405180910390a15050565b60015481565b600354815600a165627a7a7230582031212ce6ec549f22252e4defdb88e2d5d2719fe8d58df29a8a8e0dd3c0eae3460029",
  "source": "pragma solidity ^0.4.18;\r\n\r\ncontract Plant {\r\n\r\n    address public creator;\r\n\r\n\t// initial Variables\r\n\tuint public number_of_leaves;\r\n\tuint public remaining_leaves = 0; // has to start on 1 otherwise it cancels price calculation\r\n\tuint public initial_coins;\r\n\tuint public total_supply;\r\n\tuint public finney_balance; // 1 Ether is 1,000 finney - see this converter -> https://converter.murkin.me/\r\n\tuint public plant_price = 60; // Price is in Finney $20 if approx 60 Finney\r\n\tuint public number_of_plants;\r\n\r\n\t// Modififer to check if there's enough money for a new plant without wasting gas\r\n\tmodifier onlyIfEnoughMoney() {\r\n\t\trequire(finney_balance > plant_price);\r\n\t\t_;\r\n\t}\r\n\r\n\t// only_creator can update price\r\n\tmodifier onlyCreator() {\r\n\t\trequire(msg.sender == creator);\r\n\t\t_;\r\n\t}\r\n\r\n\t// you need to send some money to initialise the contract\r\n\tmodifier enoughToInitialise() {\r\n\t\trequire(msg.value > 0);\r\n\t\t_;\r\n\t}\r\n\r\n\tfunction Plant(uint _number_of_leaves, uint _initial_coins) public payable enoughToInitialise {\r\n\t\tnumber_of_leaves = _number_of_leaves;\r\n\t\tremaining_leaves = number_of_leaves;\r\n\t\tinitial_coins = _initial_coins;\r\n\t\ttotal_supply = initial_coins;\r\n\t\tfinney_balance = msg.value/1000000000000000;\r\n\t\tcreator = msg.sender;\r\n\t\tnumber_of_plants = 1;\r\n\t\tdepositedFunds(msg.value, finney_balance);\r\n\t}\r\n\r\n\tfunction buy_new_plant() private onlyIfEnoughMoney {\r\n\r\n\t  uint number_plants_to_buy = finney_balance / plant_price;\r\n\r\n\t\ttotal_supply += (initial_coins*number_plants_to_buy);\r\n\t\tfinney_balance -= (plant_price*number_plants_to_buy);\r\n\t\tnumber_of_plants += number_plants_to_buy;\r\n\t\tplantWasPurchased(finney_balance, total_supply, number_of_plants);\r\n\t}\r\n\r\n\tfunction () payable public {\r\n\t\tfinney_balance += msg.value/1000000000000000;\r\n\t\tbuy_new_plant();\r\n\t\tdepositedFunds(msg.value, finney_balance);\r\n\t}\r\n\r\n  function receiveEther() payable public {\r\n    finney_balance += msg.value/1000000000000000;\r\n    //buy_new_plant();\r\n    depositedFunds(msg.value, finney_balance);\r\n  }\r\n\r\n\tfunction terminate() private onlyCreator{\r\n\t\tselfdestruct(creator);\r\n\t}\r\n\r\n\tfunction getStatus() returns (uint leaves, uint outstandingTokens, uint balance, uint numberOfPlants){\r\n\t\treturn(remaining_leaves, total_supply, finney_balance, number_of_plants);\r\n\t}\r\n\r\n\tfunction leafPicked(uint numPicked) public payable{\r\n\t    require(numPicked < remaining_leaves);\r\n      finney_balance += msg.value/1000000000000000;\r\n\t    uint number_before_picking = remaining_leaves;\r\n\t    remaining_leaves -= numPicked;\r\n      pickedEvent(msg.sender, numPicked, now);\r\n\t}\r\n\r\n\tevent plantWasPurchased(uint newBalance, uint newTotalSupply, uint newPlantNumber); // Event\r\n\tevent depositedFunds(uint amount, uint newBalance); // Event\r\n  event pickedEvent(address harvester, uint leafTaken, uint _time);\r\n\r\n}\r\n",
  "sourcePath": "C:\\Users\\charles.fried\\Documents\\Solidity\\plant_test\\contracts\\Plant.sol",
  "compiler": {
    "name": "solc",
    "version": "0.4.18+commit.9cf6e910.Emscripten.clang"
  },
  "schemaVersion": "1.0.1",
  "updatedAt": "2017-11-29T12:24:55.247Z"
}